{
  "_format": "hh-sol-artifact-1",
  "contractName": "RollupV1",
  "sourceName": "contracts/rollup/RollupV1.sol",
  "abi": [
    {
      "inputs": [],
      "stateMutability": "nonpayable",
      "type": "constructor"
    },
    {
      "inputs": [],
      "name": "InvalidInitialization",
      "type": "error"
    },
    {
      "inputs": [],
      "name": "NotInitializing",
      "type": "error"
    },
    {
      "inputs": [
        {
          "internalType": "address",
          "name": "owner",
          "type": "address"
        }
      ],
      "name": "OwnableInvalidOwner",
      "type": "error"
    },
    {
      "inputs": [
        {
          "internalType": "address",
          "name": "account",
          "type": "address"
        }
      ],
      "name": "OwnableUnauthorizedAccount",
      "type": "error"
    },
    {
      "anonymous": false,
      "inputs": [
        {
          "indexed": false,
          "internalType": "uint64",
          "name": "version",
          "type": "uint64"
        }
      ],
      "name": "Initialized",
      "type": "event"
    },
    {
      "anonymous": false,
      "inputs": [
        {
          "indexed": true,
          "internalType": "address",
          "name": "previousOwner",
          "type": "address"
        },
        {
          "indexed": true,
          "internalType": "address",
          "name": "newOwner",
          "type": "address"
        }
      ],
      "name": "OwnershipTransferred",
      "type": "event"
    },
    {
      "anonymous": false,
      "inputs": [
        {
          "indexed": false,
          "internalType": "uint256",
          "name": "index",
          "type": "uint256"
        },
        {
          "indexed": false,
          "internalType": "uint256",
          "name": "validFrom",
          "type": "uint256"
        }
      ],
      "name": "ValidatorSetAdded",
      "type": "event"
    },
    {
      "inputs": [
        {
          "internalType": "address",
          "name": "prover",
          "type": "address"
        }
      ],
      "name": "addProver",
      "outputs": [],
      "stateMutability": "nonpayable",
      "type": "function"
    },
    {
      "inputs": [],
      "name": "aggregateVerifier",
      "outputs": [
        {
          "internalType": "contract AggregateVerifierV1",
          "name": "",
          "type": "address"
        }
      ],
      "stateMutability": "view",
      "type": "function"
    },
    {
      "inputs": [],
      "name": "blockHash",
      "outputs": [
        {
          "internalType": "bytes32",
          "name": "",
          "type": "bytes32"
        }
      ],
      "stateMutability": "view",
      "type": "function"
    },
    {
      "inputs": [],
      "name": "blockHeight",
      "outputs": [
        {
          "internalType": "uint256",
          "name": "",
          "type": "uint256"
        }
      ],
      "stateMutability": "view",
      "type": "function"
    },
    {
      "inputs": [
        {
          "internalType": "address",
          "name": "to",
          "type": "address"
        },
        {
          "internalType": "bytes",
          "name": "proof",
          "type": "bytes"
        },
        {
          "internalType": "bytes32",
          "name": "nullifer",
          "type": "bytes32"
        },
        {
          "internalType": "bytes32",
          "name": "value",
          "type": "bytes32"
        },
        {
          "internalType": "bytes32",
          "name": "source",
          "type": "bytes32"
        },
        {
          "internalType": "bytes32",
          "name": "sig",
          "type": "bytes32"
        }
      ],
      "name": "burn",
      "outputs": [],
      "stateMutability": "nonpayable",
      "type": "function"
    },
    {
      "inputs": [],
      "name": "burnVerifier",
      "outputs": [
        {
          "internalType": "contract BurnVerifierV1",
          "name": "",
          "type": "address"
        }
      ],
      "stateMutability": "view",
      "type": "function"
    },
    {
      "inputs": [
        {
          "internalType": "bytes32[6]",
          "name": "hashes",
          "type": "bytes32[6]"
        }
      ],
      "name": "containsRootHashes",
      "outputs": [
        {
          "internalType": "bool",
          "name": "",
          "type": "bool"
        }
      ],
      "stateMutability": "view",
      "type": "function"
    },
    {
      "inputs": [],
      "name": "currentRootHash",
      "outputs": [
        {
          "internalType": "bytes32",
          "name": "",
          "type": "bytes32"
        }
      ],
      "stateMutability": "view",
      "type": "function"
    },
    {
      "inputs": [
        {
          "internalType": "bytes32",
          "name": "key",
          "type": "bytes32"
        }
      ],
      "name": "getBurn",
      "outputs": [
        {
          "components": [
            {
              "internalType": "address",
              "name": "to",
              "type": "address"
            },
            {
              "internalType": "uint256",
              "name": "amount",
              "type": "uint256"
            }
          ],
          "internalType": "struct Burn",
          "name": "",
          "type": "tuple"
        }
      ],
      "stateMutability": "view",
      "type": "function"
    },
    {
      "inputs": [
        {
          "internalType": "bytes32",
          "name": "key",
          "type": "bytes32"
        }
      ],
      "name": "getMint",
      "outputs": [
        {
          "internalType": "uint256",
          "name": "",
          "type": "uint256"
        }
      ],
      "stateMutability": "view",
      "type": "function"
    },
    {
      "inputs": [],
      "name": "getRootHashes",
      "outputs": [
        {
          "internalType": "bytes32[64]",
          "name": "",
          "type": "bytes32[64]"
        }
      ],
      "stateMutability": "view",
      "type": "function"
    },
    {
      "inputs": [
        {
          "internalType": "uint256",
          "name": "from",
          "type": "uint256"
        }
      ],
      "name": "getValidatorSets",
      "outputs": [
        {
          "components": [
            {
              "internalType": "address[]",
              "name": "validators",
              "type": "address[]"
            },
            {
              "internalType": "uint256",
              "name": "validFrom",
              "type": "uint256"
            }
          ],
          "internalType": "struct PublicValidatorSet[]",
          "name": "",
          "type": "tuple[]"
        }
      ],
      "stateMutability": "view",
      "type": "function"
    },
    {
      "inputs": [
        {
          "internalType": "address",
          "name": "owner",
          "type": "address"
        },
        {
          "internalType": "address",
          "name": "_usdcAddress",
          "type": "address"
        },
        {
          "internalType": "address",
          "name": "_aggregateVerifier",
          "type": "address"
        },
        {
          "internalType": "address",
          "name": "_mintVerifier",
          "type": "address"
        },
        {
          "internalType": "address",
          "name": "_burnVerifier",
          "type": "address"
        },
        {
          "internalType": "address",
          "name": "prover",
          "type": "address"
        },
        {
          "internalType": "address[]",
          "name": "initialValidators",
          "type": "address[]"
        },
        {
          "internalType": "bytes32",
          "name": "emptyMerkleTreeRootHash",
          "type": "bytes32"
        }
      ],
      "name": "initialize",
      "outputs": [],
      "stateMutability": "nonpayable",
      "type": "function"
    },
    {
      "inputs": [
        {
          "internalType": "bytes",
          "name": "proof",
          "type": "bytes"
        },
        {
          "internalType": "bytes32",
          "name": "commitment",
          "type": "bytes32"
        },
        {
          "internalType": "bytes32",
          "name": "value",
          "type": "bytes32"
        },
        {
          "internalType": "bytes32",
          "name": "source",
          "type": "bytes32"
        }
      ],
      "name": "mint",
      "outputs": [],
      "stateMutability": "nonpayable",
      "type": "function"
    },
    {
      "inputs": [],
      "name": "mintVerifier",
      "outputs": [
        {
          "internalType": "contract MintVerifierV1",
          "name": "",
          "type": "address"
        }
      ],
      "stateMutability": "view",
      "type": "function"
    },
    {
      "inputs": [
        {
          "internalType": "bytes",
          "name": "proof",
          "type": "bytes"
        },
        {
          "internalType": "bytes32",
          "name": "commitment",
          "type": "bytes32"
        },
        {
          "internalType": "bytes32",
          "name": "value",
          "type": "bytes32"
        },
        {
          "internalType": "bytes32",
          "name": "source",
          "type": "bytes32"
        },
        {
          "internalType": "address",
          "name": "from",
          "type": "address"
        },
        {
          "internalType": "uint256",
          "name": "validAfter",
          "type": "uint256"
        },
        {
          "internalType": "uint256",
          "name": "validBefore",
          "type": "uint256"
        },
        {
          "internalType": "bytes32",
          "name": "nonce",
          "type": "bytes32"
        },
        {
          "internalType": "uint256",
          "name": "v",
          "type": "uint256"
        },
        {
          "internalType": "bytes32",
          "name": "r",
          "type": "bytes32"
        },
        {
          "internalType": "bytes32",
          "name": "s",
          "type": "bytes32"
        },
        {
          "internalType": "uint256",
          "name": "v2",
          "type": "uint256"
        },
        {
          "internalType": "bytes32",
          "name": "r2",
          "type": "bytes32"
        },
        {
          "internalType": "bytes32",
          "name": "s2",
          "type": "bytes32"
        }
      ],
      "name": "mintWithAuthorization",
      "outputs": [],
      "stateMutability": "nonpayable",
      "type": "function"
    },
    {
      "inputs": [],
      "name": "nextRootHashIndex",
      "outputs": [
        {
          "internalType": "uint256",
          "name": "",
          "type": "uint256"
        }
      ],
      "stateMutability": "view",
      "type": "function"
    },
    {
      "inputs": [],
      "name": "owner",
      "outputs": [
        {
          "internalType": "address",
          "name": "",
          "type": "address"
        }
      ],
      "stateMutability": "view",
      "type": "function"
    },
    {
      "inputs": [],
      "name": "renounceOwnership",
      "outputs": [],
      "stateMutability": "nonpayable",
      "type": "function"
    },
    {
      "inputs": [
        {
          "internalType": "uint256",
          "name": "",
          "type": "uint256"
        }
      ],
      "name": "rootHashes",
      "outputs": [
        {
          "internalType": "bytes32",
          "name": "",
          "type": "bytes32"
        }
      ],
      "stateMutability": "view",
      "type": "function"
    },
    {
      "inputs": [
        {
          "internalType": "bytes32",
          "name": "newRoot",
          "type": "bytes32"
        }
      ],
      "name": "setRoot",
      "outputs": [],
      "stateMutability": "nonpayable",
      "type": "function"
    },
    {
      "inputs": [
        {
          "internalType": "uint256",
          "name": "validFrom",
          "type": "uint256"
        },
        {
          "internalType": "address[]",
          "name": "validators",
          "type": "address[]"
        }
      ],
      "name": "setValidators",
      "outputs": [],
      "stateMutability": "nonpayable",
      "type": "function"
    },
    {
      "inputs": [
        {
          "internalType": "address",
          "name": "newOwner",
          "type": "address"
        }
      ],
      "name": "transferOwnership",
      "outputs": [],
      "stateMutability": "nonpayable",
      "type": "function"
    },
    {
      "inputs": [],
      "name": "usdc",
      "outputs": [
        {
          "internalType": "contract IUSDC",
          "name": "",
          "type": "address"
        }
      ],
      "stateMutability": "view",
      "type": "function"
    },
    {
      "inputs": [
        {
          "internalType": "bytes",
          "name": "aggrProof",
          "type": "bytes"
        },
        {
          "internalType": "bytes32[12]",
          "name": "aggrInstances",
          "type": "bytes32[12]"
        },
        {
          "internalType": "bytes32",
          "name": "oldRoot",
          "type": "bytes32"
        },
        {
          "internalType": "bytes32",
          "name": "newRoot",
          "type": "bytes32"
        },
        {
          "internalType": "bytes32[18]",
          "name": "utxoHashes",
          "type": "bytes32[18]"
        },
        {
          "internalType": "bytes32",
          "name": "otherHashFromBlockHash",
          "type": "bytes32"
        },
        {
          "internalType": "uint256",
          "name": "height",
          "type": "uint256"
        },
        {
          "components": [
            {
              "internalType": "bytes32",
              "name": "r",
              "type": "bytes32"
            },
            {
              "internalType": "bytes32",
              "name": "s",
              "type": "bytes32"
            },
            {
              "internalType": "uint256",
              "name": "v",
              "type": "uint256"
            }
          ],
          "internalType": "struct Signature[]",
          "name": "signatures",
          "type": "tuple[]"
        }
      ],
      "name": "verifyBlock",
      "outputs": [],
      "stateMutability": "nonpayable",
      "type": "function"
    },
    {
      "inputs": [],
      "name": "version",
      "outputs": [
        {
          "internalType": "uint8",
          "name": "",
          "type": "uint8"
        }
      ],
      "stateMutability": "view",
      "type": "function"
    }
  ],
  "bytecode": "0x608080604052346100b8577ff0c57e16840df040f15088dc2f81fe391c3923bec73e23a9662efc9c229c6a009081549060ff8260401c166100a957506001600160401b036002600160401b031982821601610064575b60405161229090816100be8239f35b6001600160401b031990911681179091556040519081527fc7f505b2f371ae2175ee4913f4499e1f2633a7b5936321eed1cdaeb6115181d290602090a1388080610055565b63f92ee8a960e01b8152600490fd5b600080fdfe608080604052600436101561001357600080fd5b600090813560e01c908162b0938d14611d55575080631000b72914611c105780631d49e45714611bd35780633e413bee14611baa5780634fb4eee3146113b157806353b935571461138457806354fd4d50146113645780635eeba6dd14610dbd5780636779b7c214610d9f578063715018a614610d345780638da5cb5b14610cfe578063a2ce9c1f14610cd4578063a91eebf514610cb1578063afbd8c3914610c4d578063b506165814610957578063c072bd881461092e578063c3a716eb14610905578063c832fe5f14610880578063cb325833146106ff578063dab5f340146106da578063e4408e4614610673578063e795594d1461039a578063ef0feff9146101a9578063f22a195e1461018b578063f2fde38b1461015e5763f44ff7121461013e57600080fd5b3461015b578060031936011261015b576020600754604051908152f35b80fd5b503461015b57602036600319011261015b5761018861017b611da7565b610183611ebf565b611ef8565b80f35b503461015b578060031936011261015b576020600654604051908152f35b503461015b576020908160031936011261015b5790600435604d546101ce8282611fd9565b916101d8836120fe565b926101e66040519485611e9e565b8084526101f5601f19916120fe565b01855b81811061036d575050805b8281106102be5750505060405192828493840190808552835180925260408501928160408460051b880101950193815b8483106102405787870388f35b9193959092949650603f198882030183528487516040830190805191604085528251809152836060860193019086905b80821061029b5750505090600193838080940151910152980193019301909287969593949294610233565b82516001600160a01b031685528a95948501949092019160019190910190610270565b808694959652604c8652604084206001600281830192015490604051926102e484611e4c565b60405191828b83549182815201928a528b8a20918a915b8d81841061034f575050505050918161031e610346969593610340950382611e9e565b82528982015261032e8584611fd9565b90610339828a612115565b5287612115565b50612015565b94939294610203565b84546001600160a01b031686529094019392810192918101916102fb565b94808097959660405161037f81611e4c565b60608152878382015282828a010152019050959493956101f8565b503461015b57604036600319011261015b576004356001600160401b036024803582811161066f576103d0903690600401611dd3565b92906103da611ebf565b604d93845480158015610635575b156105c157600052604c91602092808452876002604060002001558654600052600194856040600020019084116105ac57600160401b84116105ac578054848255808510610582575b50829060005284600020908660005b868110610569575050505060005b8381106104ac575050505060407ffd204c7043da2bcc4dc261ed00edac3bb5e2b8c5c60c7535c4d17144759fc73291855496825191888352820152a1830180931161049857505580f35b634e487b7160e01b60009081526011600452fd5b87546000818152838752604090206001600160a01b039190826104d86104d3868a8a61213d565b612129565b16600052875260ff6040600020541661052a5790610525929160005283875260406000209061050b6104d384898961213d565b16600052865260406000208760ff19825416179055612015565b61044e565b60405162461bcd60e51b8152600481018890526018818b01527756616c696461746f7220616c72656164792065786973747360401b6044820152606490fd5b8761057384612129565b93019281850155018790610440565b8160005286858760002092830192015b8281106105a0575050610431565b60008155018790610592565b86634e487b7160e01b60005260416004526000fd5b60405162461bcd60e51b8152602060048201526041818701527f4e65772076616c696461746f7220736574206d7573742068617665206120766160448201527f6c696446726f6d2067726561746572207468616e20746865206c6173742073656064820152601d60fa1b608482015260a490fd5b50600019810181811161065a57600052604c60205286600260406000200154106103e8565b85634e487b7160e01b60005260116004526000fd5b8480fd5b503461015b57602036600319011261015b5760408181926020835161069781611e4c565b82815201526004358152604b6020522081516106b281611e4c565b81546001600160a01b0316808252600190920154602091820190815283519283525190820152f35b503461015b57602036600319011261015b576106f4611ebf565b610188600435611f9b565b503461015b5760c036600319011261015b57610719611da7565b6001600160401b0360243581811161087c57610739903690600401611d7a565b600454604051949293606435936001600160a01b03936044359390929085169160a089019182118983101761086657859160405216968781526020968488830152866040830152608435606083015260a4356080830152823b1561086257604051625a2d8360e11b815260c060048201528a94909392916107be9160c48601916121b6565b908489602486015b60058310610848575050505083918380809303915afa801561083d57610825575b5050600193604b91604051966107fc88611e4c565b875281870194855287525260408520935184546001600160a01b03191691161783555191015580f35b61082e90611e1e565b6108395785386107e7565b8580fd5b6040513d84823e3d90fd5b835181528d975092810192600192909201918b91016107c6565b8980fd5b634e487b7160e01b600052604160045260246000fd5b8380fd5b503461015b578060031936011261015b576040519061089e82611e82565b610800809236903760405190600881835b604082106108ef57505050906108c481611e82565b6040519190825b604083106108d857505050f35b6001908251815260208091019201920191906108cb565b60016020819285548152019301910190916108af565b503461015b578060031936011261015b576004546040516001600160a01b039091168152602090f35b503461015b578060031936011261015b576002546040516001600160a01b039091168152602090f35b503461015b576101c036600319011261015b576001600160401b0390600435828111610c495761098b903690600401611d7a565b909260643593610999611dbd565b60243592838652602092604a84526040872054610c0e5760405192848401907fc635e9b551a1a2bbfb4fa770e7a75f4bd6b213e8b5cd5e22ee395e8760d863c08252866040860152604435978860608701528a608087015260018060a01b03809216938460a088015260a435968760c082015260c435968760e083015260e435956101008781850152835261012083019183831090831117610866578a92828f9392610aa193604052825190206101626001549361014081019461190160f01b8652610142820152015260428152610a7081611e67565b519020604080519182526101643560ff16602083015261018435908201526101a43560608201529081906080820190565b838052039060015afa15610c035784838c511603610bcd578a9b8360039c999a9b9c541660405191610ad283611e03565b8c83528d8c8401526040830152803b1561086257610b09938a9360405195869485938493635e65f68960e11b8552600485016121d7565b03915afa908115610bc2578791610bae575b50506005541690813b156108395785936040519586946377aadf6360e11b865260048601523060248601528a60448601526064850152608484015260a483015281836101049260ff84351660c484015261012493843560e485015261014435908401525af1801561083d57610b9a575b5091604a925252604082205580f35b610ba390611e1e565b61087c578338610b8b565b610bb790611e1e565b610839578538610b1b565b6040513d89823e3d90fd5b60405162461bcd60e51b815260048101899052600e60248201526d24b73b30b634b21039b4b3b732b960911b6044820152606490fd5b6040513d8c823e3d90fd5b60405162461bcd60e51b81526020600482015260136024820152724d696e7420616c72656164792065786973747360681b6044820152606490fd5b5080fd5b503461015b5760c036600319011261015b57366023121561015b57604051610c7481611e31565b8060c49136831161087c57602093506004905b838210610ca25784610c9884612035565b6040519015158152f35b81358152908401908401610c87565b503461015b578060031936011261015b576020610ccc611fe6565b604051908152f35b503461015b57602036600319011261015b5760406020916004358152604a83522054604051908152f35b503461015b578060031936011261015b5760008051602061221b833981519152546040516001600160a01b039091168152602090f35b503461015b578060031936011261015b57610d4d611ebf565b60008051602061221b83398151915280546001600160a01b031981169091556000906001600160a01b03167f8be0079c531659141344cd1fd0a4f28419497f9722a3daafe3b4186f6b6457e08280a380f35b503461015b578060031936011261015b576020604854604051908152f35b503461015b5761010036600319011261015b57610dd8611da7565b6024356001600160a01b038116810361135f57604435906001600160a01b038216820361135f57606435906001600160a01b038216820361135f57610e1b611dbd565b60a43591906001600160a01b038316830361135f5760c4356001600160401b03811161135b57610e4f903690600401611dd3565b94909560008051602061223b83398151915254976001600160401b038916158061134d575b60016001600160401b038b16149081611343575b15908161133a575b5061132857610edf9060016001600160401b03198b161760008051602061223b8339815191525560ff8a60401c16156112fb575b8a5460ff19166001178b55610ed7611f6c565b610183611f6c565b650526f6c6c75760d41b6020604051610ef781611e4c565b600681520152603160f81b6020604051610f1081611e4c565b60018152015260405160208101907f8b73c3c69bb8fe3d512ecc4cf759cc79239f7b179b0ffacaa9a75d522b39400f82527fc82a8a13fc2fdda879509bc5c45bfffe0508f437994e87b6b3cb003a4d486c1960408201527fc89efdaa54c0f20c7adf612882df0950f5a951637e0307cdcb4c672f298b8bc660608201524660808201523060a082015260a08152610fa681611e31565b5190206001556bffffffffffffffffffffffff60a01b9360018060a01b031684600554161760055560018060a01b031683600254161760025560018060a01b031682600354161760035560018060a01b031690600454161760045560018060a01b03168452604960205260016040852055604d54801580156112df575b1561126a57600052604c60205260006002604082200155604d5460005260016040600020016001600160401b03821161086657600160401b8211610866578054828255808310611240575b50829060005260206000209060005b8381106112255750505060005b81811061116057505050604d54907ffd204c7043da2bcc4dc261ed00edac3bb5e2b8c5c60c7535c4d17144759fc7326040805184815260006020820152a16001820180921161114a5760ff91604d556110e460e435611f9b565b60401c16156110f05780f35b68ff00000000000000001960008051602061223b833981519152541660008051602061223b833981519152557fc7f505b2f371ae2175ee4913f4499e1f2633a7b5936321eed1cdaeb6115181d2602060405160018152a180f35b634e487b7160e01b600052601160045260246000fd5b604d546000818152604c602052604090209091906001600160a01b0361118a6104d384878961213d565b1660005260205260ff604060002054166111e5576111e091600052604c602052604060002060018060a01b036111c46104d384878961213d565b166000526020526040600020600160ff19825416179055612015565b61108a565b60405162461bcd60e51b815260206004820152601860248201527756616c696461746f7220616c72656164792065786973747360401b6044820152606490fd5b600190602061123384612129565b930192818501550161107d565b816000526020600020908382015b818301811061125e57505061106e565b6000815560010161124e565b60405162461bcd60e51b815260206004820152604160248201527f4e65772076616c696461746f7220736574206d7573742068617665206120766160448201527f6c696446726f6d2067726561746572207468616e20746865206c6173742073656064820152601d60fa1b608482015260a490fd5b50600019810181811161114a57600052604c6020526000611023565b68ffffffffffffffffff198a16680100000000000000011760008051602061223b83398151915255610ec4565b60405163f92ee8a960e01b8152600490fd5b90501538610e90565b303b159150610e88565b5060ff8960401c1615610e74565b8780fd5b600080fd5b503461015b578060031936011261015b5760ff6020915416604051908152f35b503461015b57602036600319011261015b576004356040811015610c495760209060080154604051908152f35b503461015b5761048036600319011261015b576001600160401b03600435818111611ba6576113e4903690600401611d7a565b9091366101a41161087c57366104241161087c5780610464351161087c573660236104643501121561087c57610464356004013511611ba657366024606061046435600401350261046435010111611ba65733835260496020526001604084205403611b6a57604e5460018101809111611b56575b604d54811015611b4f57808452604c6020526104443560026040862001541161148e578061148991604e55612015565b611459565b50905b604e548352604c60205260408320916114a8611fe6565b6101a43503611af957835b601281106118fb57506115036040516114cb81611e31565b6101e43581526102443560208201526102a43560408201526103043560608201526103643560808201526103c43560a0820152612035565b156118bf5760018301548060011b90808204600214901517156118485760039004600181018091116118485761046435600401351061185c576040516101c43560208201526104443560408201526104243560608201526060815261156781611e67565b6020815191012092600161044435016104443511611848576040516020810190600161044435018252856040820152604081526115a381611e03565b519020604051906115b382611e4c565b6008825267506f6c796261736560c01b602083015260405190816020810193600160c31b85528051908a5b82811061183057505090611605926048928201906028820152036028810184520182611e9e565b5190206104643560040135156117fb5785939291849190825b610464356004013584106116d75750506002546001600160a01b031693915050823b1561087c57604051633b07787160e21b81526104206004820152928492849283918291611672916104248401916121b6565b6101806024808401376101a4356101a48301526101c4356101c48301526102406101e48084013703915afa801561083d576116c3575b50506116b66101c435611f9b565b6006556104443560075580f35b6116cc90611e1e565b610c495781386116a8565b90919293949560209061172660608702610464350160405191816044849301359060ff60646024830135920135168a859094939260ff6060936080840197845216602083015260408201520152565b838052039060015afa15610bc25787519060018060a01b03808316918260005284602052600160ff604060002054161515036117b6571610156117785761176d9093612015565b91908795949361161e565b60405162461bcd60e51b815260206004820152601660248201527514da59db995c9cc8185c99481b9bdd081cdbdc9d195960521b6044820152606490fd5b60405162461bcd60e51b815260206004820152601960248201527f5369676e6572206973206e6f7420612076616c696461746f72000000000000006044820152606490fd5b60405162461bcd60e51b815260206004820152600d60248201526c4e6f207369676e61747572657360981b6044820152606490fd5b602082820181015160288884010152869450016115de565b634e487b7160e01b85526011600452602485fd5b60405162461bcd60e51b815260206004820152603560248201527f4e6f7420656e6f756768207369676e6174757265732066726f6d2076616c696460448201527461746f727320746f2076657269667920626c6f636b60581b6064820152608490fd5b60405162461bcd60e51b8152602060048201526014602482015273496e76616c696420726563656e7420726f6f747360601b6044820152606490fd5b60018101808211611ae55761190f9061214d565b35600282018211611ae5576119266002830161214d565b358015611ade57818752604a602052604087205480611a8b5750604b60205260016040882001548061198b5760405162461bcd60e51b815260206004820152601160248201527024b73b30b634b21036b4b73a17b13ab93760791b6044820152606490fd5b03611a505760018060a01b036020816005541691838952604b82526044600160408b2092835416920154918a604051958694859363a9059cbb60e01b8552600485015260248401525af18015610bc2576119ec918891611a21575b50612178565b8552604b602052600060016040872087815501555b60038101809111156114b357634e487b7160e01b85526011600452602485fd5b611a43915060203d602011611a49575b611a3b8183611e9e565b810190612160565b386119e6565b503d611a31565b60405162461bcd60e51b8152602060048201526013602482015272125b9d985b1a5908189d5c9b88185b5bdd5b9d606a1b6044820152606490fd5b03611aa3578552604a60205260006040862055611a01565b60405162461bcd60e51b8152602060048201526013602482015272125b9d985b1a59081b5a5b9d08185b5bdd5b9d606a1b6044820152606490fd5b5050611a01565b634e487b7160e01b86526011600452602486fd5b60405162461bcd60e51b815260206004820152602860248201527f4f6c6420726f6f7420646f6573206e6f74206d61746368207468652063757272604482015267195b9d081c9bdbdd60c21b6064820152608490fd5b5090611491565b634e487b7160e01b84526011600452602484fd5b60405162461bcd60e51b81526020600482015260146024820152732cb7ba9030b932903737ba103090383937bb32b960611b6044820152606490fd5b8280fd5b503461015b578060031936011261015b576005546040516001600160a01b039091168152602090f35b503461015b57602036600319011261015b57611bed611da7565b611bf5611ebf565b6001600160a01b031681526049602052604081206001905580f35b503461015b57608036600319011261015b576004356001600160401b038111610c4957611c41903690600401611d7a565b91906024359060443591808452602091604a83526040852054610c0e576003546040516001600160a01b0397909291881691611c7c84611e03565b84845286868501526064356040850152823b1561135b57604051635e65f68960e11b81529388938593909284928392611cb892600485016121d7565b03915afa8015611d3557611d40575b50818495600595949554166064604051809681936323b872dd60e01b83523360048401523060248401528960448401525af1928315611d3557604a93611d13918791611d1e5750612178565b845252604082205580f35b611a439150843d8611611a4957611a3b8183611e9e565b6040513d87823e3d90fd5b93611d4d83969495611e1e565b939294611cc7565b905034610c495781600319360112610c49576003546001600160a01b03168152602090f35b9181601f8401121561135f578235916001600160401b03831161135f576020838186019501011161135f57565b600435906001600160a01b038216820361135f57565b608435906001600160a01b038216820361135f57565b9181601f8401121561135f578235916001600160401b03831161135f576020808501948460051b01011161135f57565b606081019081106001600160401b0382111761086657604052565b6001600160401b03811161086657604052565b60c081019081106001600160401b0382111761086657604052565b604081019081106001600160401b0382111761086657604052565b608081019081106001600160401b0382111761086657604052565b61080081019081106001600160401b0382111761086657604052565b90601f801991011681019081106001600160401b0382111761086657604052565b60008051602061221b833981519152546001600160a01b03163303611ee057565b60405163118cdaa760e01b8152336004820152602490fd5b6001600160a01b03908116908115611f535760008051602061221b83398151915280546001600160a01b031981168417909155167f8be0079c531659141344cd1fd0a4f28419497f9722a3daafe3b4186f6b6457e0600080a3565b604051631e4fbdf760e01b815260006004820152602490fd5b60ff60008051602061223b8339815191525460401c1615611f8957565b604051631afcd79f60e31b8152600490fd5b6048546040811015611fc3576008015560485460018101811161114a57600160409108604855565b634e487b7160e01b600052603260045260246000fd5b9190820391821161114a57565b603f60485480612002575b506040811015611fc3576008015490565b60001981019150811161114a5738611ff1565b600019811461114a5760010190565b906006811015611fc35760051b0190565b60409081519161204483611e31565b60009182845282602085015282828501528260608501528260808501528260a0850152825b600681106120aa57505050805b6006811061208657505050600190565b6120908184612024565b51156120a45761209f90612015565b612076565b50905090565b835b8381106120c3575b506120be90612015565b612069565b6120cd8284612024565b518160080154146120e6576120e190612015565b6120ac565b508060016120f76120be9388612024565b52906120b4565b6001600160401b0381116108665760051b60200190565b8051821015611fc35760209160051b010190565b356001600160a01b038116810361135f5790565b9190811015611fc35760051b0190565b6012811015611fc35760051b6101e40190565b9081602091031261135f5751801515810361135f5790565b1561217f57565b60405162461bcd60e51b815260206004820152600f60248201526e151c985b9cd9995c8819985a5b1959608a1b6044820152606490fd5b908060209392818452848401376000828201840152601f01601f1916010190565b939291906121ed916080865260808601916121b6565b9260208091016000905b600382106122055750505050565b828060019286518152019401910190926121f756fe9016d09d72d40fdae2fd8ceac6b6234c7706214fd39c1cd1e609a0528c199300f0c57e16840df040f15088dc2f81fe391c3923bec73e23a9662efc9c229c6a00a26469706673582212208e854684387c37eb7ab500a6ec129cf1b9dc5a3a906bf4457a31fcb26640499c64736f6c63430008140033",
  "linkReferences": {},
  "deployedLinkReferences": {}
}