{
  "_format": "hh-sol-artifact-1",
  "contractName": "AcrossWithAuthorization",
  "sourceName": "contracts/AcrossWithAuthorization.sol",
  "abi": [
    {
      "inputs": [
        {
          "internalType": "address",
          "name": "_across",
          "type": "address"
        }
      ],
      "stateMutability": "nonpayable",
      "type": "constructor"
    },
    {
      "inputs": [],
      "name": "ECDSAInvalidSignature",
      "type": "error"
    },
    {
      "inputs": [
        {
          "internalType": "uint256",
          "name": "length",
          "type": "uint256"
        }
      ],
      "name": "ECDSAInvalidSignatureLength",
      "type": "error"
    },
    {
      "inputs": [
        {
          "internalType": "bytes32",
          "name": "s",
          "type": "bytes32"
        }
      ],
      "name": "ECDSAInvalidSignatureS",
      "type": "error"
    },
    {
      "anonymous": false,
      "inputs": [
        {
          "indexed": true,
          "internalType": "address",
          "name": "depositor",
          "type": "address"
        },
        {
          "indexed": true,
          "internalType": "bytes32",
          "name": "nonce",
          "type": "bytes32"
        }
      ],
      "name": "Deposited",
      "type": "event"
    },
    {
      "inputs": [],
      "name": "DOMAIN_SEPARATOR",
      "outputs": [
        {
          "internalType": "bytes32",
          "name": "",
          "type": "bytes32"
        }
      ],
      "stateMutability": "view",
      "type": "function"
    },
    {
      "inputs": [
        {
          "internalType": "uint256",
          "name": "v",
          "type": "uint256"
        },
        {
          "internalType": "bytes32",
          "name": "r",
          "type": "bytes32"
        },
        {
          "internalType": "bytes32",
          "name": "s",
          "type": "bytes32"
        },
        {
          "internalType": "uint256",
          "name": "v2",
          "type": "uint256"
        },
        {
          "internalType": "bytes32",
          "name": "r2",
          "type": "bytes32"
        },
        {
          "internalType": "bytes32",
          "name": "s2",
          "type": "bytes32"
        },
        {
          "internalType": "uint256",
          "name": "validAfter",
          "type": "uint256"
        },
        {
          "internalType": "uint256",
          "name": "validBefore",
          "type": "uint256"
        },
        {
          "internalType": "bytes32",
          "name": "nonce",
          "type": "bytes32"
        },
        {
          "internalType": "address",
          "name": "depositor",
          "type": "address"
        },
        {
          "internalType": "address",
          "name": "recipient",
          "type": "address"
        },
        {
          "internalType": "address",
          "name": "inputToken",
          "type": "address"
        },
        {
          "internalType": "address",
          "name": "outputToken",
          "type": "address"
        },
        {
          "internalType": "uint256",
          "name": "inputAmount",
          "type": "uint256"
        },
        {
          "internalType": "uint256",
          "name": "outputAmount",
          "type": "uint256"
        },
        {
          "internalType": "uint256",
          "name": "destinationChainId",
          "type": "uint256"
        },
        {
          "internalType": "address",
          "name": "exclusiveRelayer",
          "type": "address"
        },
        {
          "internalType": "uint32",
          "name": "quoteTimestamp",
          "type": "uint32"
        },
        {
          "internalType": "uint32",
          "name": "fillDeadline",
          "type": "uint32"
        },
        {
          "internalType": "uint32",
          "name": "exclusivityDeadline",
          "type": "uint32"
        },
        {
          "internalType": "bytes",
          "name": "message",
          "type": "bytes"
        }
      ],
      "name": "depositV3WithAuthorization",
      "outputs": [],
      "stateMutability": "nonpayable",
      "type": "function"
    }
  ],
  "bytecode": "0x60803461007457601f61091338819003918201601f19168301916001600160401b038311848410176100795780849260209460405283398101031261007457516001600160a01b0381169081900361007457600080546001600160a01b03191691909117905560405161088390816100908239f35b600080fd5b634e487b7160e01b600052604160045260246000fdfe6080604052600436101561001257600080fd5b6000803560e01c80633644e515146105b85763eb2320b11461003357600080fd5b346105b5576102a03660031901126105b55761012435906001600160a01b03821682036105b55761014435916001600160a01b03831683036104e75761016435926001600160a01b03841684036105b15761018435936001600160a01b03851685036105ad57610204356001600160a01b03811681036105a957610224359163ffffffff80841684036105a557610244359781891689036105a1576102643590828216820361052a5767ffffffffffffffff610284351161052a573660236102843501121561052a5767ffffffffffffffff61028435600401351161052a5736602461028435600401356102843501011161052a576040516101466004610284350135601f01601f191660200182610621565b61028435600481013580835290602401602083013760206102843560040135820181018b9052815191810191909120604080517fb1808774e6a3862b691460baf364a9bb51d8654fecf525cc3f1c4eddb9419f689381019390935260c4359083015260e43560608301526101043560808301526001600160a01b038a811660a084015289811660c084015286811660e08401528381166101008401526101a4356101208401526101c4356101408401526101e43561016084015287166101808301528488166101a08301528b85166101c08301528385166101e0830152610200808301919091528152610220810180821167ffffffffffffffff9091111761058d5761022081016040526020815191012061025f610643565b906040519161190160f01b6020840152602283015260428201526042815280608081011067ffffffffffffffff60808301111761058d576102bf8160806102c893016040526020815191012060a435906084359060ff6064351690610738565b909291926107c8565b6001600160a01b03898116911603610557576001600160a01b0384163b1561052a57604051996377aadf6360e11b8b5260018060a01b03891660048c01523060248c01526101a43560448c015260c43560648c015260e43560848c01526101043560a48c015260ff6004351660c48c015260243560e48c01526044356101048c0152898b610124818360018060a01b038a165af1801561053657610541575b895460405163095ea7b360e01b81526001600160a01b0391821660048201526101a43560248201529a9b5098998b99602090829060449082908e908b165af18015610536576104fa575b5088546001600160a01b031694853b156104f657604051633dc9c91960e11b81526001600160a01b038c81166004808401919091529a8116602480840191909152928116604483015293841660648201526101a4803560848301526101c43560a48301526101e43560c48301529790931660e48401529684166101048301528316610124820152911661014482015261018061016482015261028435948501356101848201819052909486948694910190840137826101a461028435600401358401015281836101a482601f19601f6102843560040135011681010301925af180156104eb576104d3575b505061010435906001600160a01b03167f07c395f9699f5c4d4e90df65ab0ea5d135089f597219b61c81445b8785c75b588380a380f35b6104dc906105db565b6104e757813861049c565b5080fd5b6040513d84823e3d90fd5b8980fd5b6020813d60201161052e575b8161051360209383610621565b810103126104f657518015150361052a57386103b1565b8880fd5b3d9150610506565b6040513d8c823e3d90fd5b9798909961054e906105db565b97968990610367565b60405162461bcd60e51b815260206004820152600e60248201526d24b73b30b634b21039b4b3b732b960911b6044820152606490fd5b634e487b7160e01b8a52604160045260248afd5b8780fd5b8680fd5b8480fd5b8380fd5b8280fd5b80fd5b50346105b557806003193601126105b55760206105d3610643565b604051908152f35b67ffffffffffffffff81116105ef57604052565b634e487b7160e01b600052604160045260246000fd5b6040810190811067ffffffffffffffff8211176105ef57604052565b90601f8019910116810190811067ffffffffffffffff8211176105ef57604052565b7f4163726f737357697468417574686f72697a6174696f6e000000000000000000602060405161067281610605565b601781520152603160f81b602060405161068b81610605565b60018152015260405160208101907f8b73c3c69bb8fe3d512ecc4cf759cc79239f7b179b0ffacaa9a75d522b39400f82527f1ebcbe7a0999f3d17724384372eb5ab92c9d2107035426aa52c0fa5afbf32fce60408201527fc89efdaa54c0f20c7adf612882df0950f5a951637e0307cdcb4c672f298b8bc660608201524660808201523060a082015260a0815260c0810181811067ffffffffffffffff8211176105ef5760405251902090565b91907f7fffffffffffffffffffffffffffffff5d576e7357a4501ddfe92f46681b20a084116107bc57926020929160ff608095604051948552168484015260408301526060820152600092839182805260015afa156107b05780516001600160a01b038116156107a757918190565b50809160019190565b604051903d90823e3d90fd5b50505060009160039190565b600481101561083757806107da575050565b600181036107f45760405163f645eedf60e01b8152600490fd5b600281036108155760405163fce698f760e01b815260048101839052602490fd5b60031461081f5750565b602490604051906335e2f38360e21b82526004820152fd5b634e487b7160e01b600052602160045260246000fdfea26469706673582212203a660b9f9600a5247c21885db9a8e37e4363095155e3b5b228a1762bb4f3374164736f6c63430008140033",
  "linkReferences": {},
  "deployedLinkReferences": {}
}